{
  "contractName": "Correo_contract",
  "abi": [
    {
      "inputs": [
        {
          "internalType": "string",
          "name": "asunto",
          "type": "string"
        },
        {
          "internalType": "string",
          "name": "body",
          "type": "string"
        },
        {
          "internalType": "address",
          "name": "destinatario",
          "type": "address"
        }
      ],
      "name": "enviarCorreo",
      "outputs": [],
      "stateMutability": "nonpayable",
      "type": "function"
    },
    {
      "inputs": [],
      "name": "leerCorreo",
      "outputs": [
        {
          "components": [
            {
              "internalType": "string",
              "name": "asunto",
              "type": "string"
            },
            {
              "internalType": "string",
              "name": "body",
              "type": "string"
            }
          ],
          "internalType": "struct Correo_contract.Correo_struct[]",
          "name": "",
          "type": "tuple[]"
        }
      ],
      "stateMutability": "view",
      "type": "function"
    }
  ],
  "bytecode": "0x608060405234801561001057600080fd5b506109f7806100206000396000f3fe608060405234801561001057600080fd5b50600436106100365760003560e01c80631ad698a41461003b5780639b1e6ba814610059575b600080fd5b610043610075565b6040516100509190610485565b60405180910390f35b610073600480360381019061006e919061064e565b61023a565b005b606060008060003373ffffffffffffffffffffffffffffffffffffffff1673ffffffffffffffffffffffffffffffffffffffff168152602001908152602001600020805480602002602001604051908101604052809291908181526020016000905b8282101561022d578382906000526020600020906002020160405180604001604052908160008201805461010a90610708565b80601f016020809104026020016040519081016040528092919081815260200182805461013690610708565b80156101835780601f1061015857610100808354040283529160200191610183565b820191906000526020600020905b81548152906001019060200180831161016657829003601f168201915b5050505050815260200160018201805461019c90610708565b80601f01602080910402602001604051908101604052809291908181526020018280546101c890610708565b80156102155780601f106101ea57610100808354040283529160200191610215565b820191906000526020600020905b8154815290600101906020018083116101f857829003601f168201915b505050505081525050815260200190600101906100d7565b5050505090508091505090565b60008060008373ffffffffffffffffffffffffffffffffffffffff1673ffffffffffffffffffffffffffffffffffffffff168152602001908152602001600020905080604051806040016040528086815260200185815250908060018154018082558091505060019003906000526020600020906002020160009091909190915060008201518160000190816102d091906108ef565b5060208201518160010190816102e691906108ef565b50505050505050565b600081519050919050565b600082825260208201905092915050565b6000819050602082019050919050565b600081519050919050565b600082825260208201905092915050565b60005b8381101561035557808201518184015260208101905061033a565b60008484015250505050565b6000601f19601f8301169050919050565b600061037d8261031b565b6103878185610326565b9350610397818560208601610337565b6103a081610361565b840191505092915050565b600060408301600083015184820360008601526103c88282610372565b915050602083015184820360208601526103e28282610372565b9150508091505092915050565b60006103fb83836103ab565b905092915050565b6000602082019050919050565b600061041b826102ef565b61042581856102fa565b9350836020820285016104378561030b565b8060005b85811015610473578484038952815161045485826103ef565b945061045f83610403565b925060208a0199505060018101905061043b565b50829750879550505050505092915050565b6000602082019050818103600083015261049f8184610410565b905092915050565b6000604051905090565b600080fd5b600080fd5b600080fd5b600080fd5b7f4e487b7100000000000000000000000000000000000000000000000000000000600052604160045260246000fd5b6104fd82610361565b810181811067ffffffffffffffff8211171561051c5761051b6104c5565b5b80604052505050565b600061052f6104a7565b905061053b82826104f4565b919050565b600067ffffffffffffffff82111561055b5761055a6104c5565b5b61056482610361565b9050602081019050919050565b82818337600083830152505050565b600061059361058e84610540565b610525565b9050828152602081018484840111156105af576105ae6104c0565b5b6105ba848285610571565b509392505050565b600082601f8301126105d7576105d66104bb565b5b81356105e7848260208601610580565b91505092915050565b600073ffffffffffffffffffffffffffffffffffffffff82169050919050565b600061061b826105f0565b9050919050565b61062b81610610565b811461063657600080fd5b50565b60008135905061064881610622565b92915050565b600080600060608486031215610667576106666104b1565b5b600084013567ffffffffffffffff811115610685576106846104b6565b5b610691868287016105c2565b935050602084013567ffffffffffffffff8111156106b2576106b16104b6565b5b6106be868287016105c2565b92505060406106cf86828701610639565b9150509250925092565b7f4e487b7100000000000000000000000000000000000000000000000000000000600052602260045260246000fd5b6000600282049050600182168061072057607f821691505b602082108103610733576107326106d9565b5b50919050565b60008190508160005260206000209050919050565b60006020601f8301049050919050565b600082821b905092915050565b60006008830261079b7fffffffffffffffffffffffffffffffffffffffffffffffffffffffffffffffff8261075e565b6107a5868361075e565b95508019841693508086168417925050509392505050565b6000819050919050565b6000819050919050565b60006107ec6107e76107e2846107bd565b6107c7565b6107bd565b9050919050565b6000819050919050565b610806836107d1565b61081a610812826107f3565b84845461076b565b825550505050565b600090565b61082f610822565b61083a8184846107fd565b505050565b5b8181101561085e57610853600082610827565b600181019050610840565b5050565b601f8211156108a35761087481610739565b61087d8461074e565b8101602085101561088c578190505b6108a06108988561074e565b83018261083f565b50505b505050565b600082821c905092915050565b60006108c6600019846008026108a8565b1980831691505092915050565b60006108df83836108b5565b9150826002028217905092915050565b6108f88261031b565b67ffffffffffffffff811115610911576109106104c5565b5b61091b8254610708565b610926828285610862565b600060209050601f8311600181146109595760008415610947578287015190505b61095185826108d3565b8655506109b9565b601f19841661096786610739565b60005b8281101561098f5784890151825560018201915060208501945060208101905061096a565b868310156109ac57848901516109a8601f8916826108b5565b8355505b6001600288020188555050505b50505050505056fea2646970667358221220f67088d063da1cdcdbd45c3ac1e74da9d338ef24d65b6bb8dc00e5de69f339be64736f6c63430008110033",
  "immutableReferences": {},
  "source": "pragma solidity ^0.8.17;\r\n\r\ncontract Correo_contract {\r\n    struct Correo_struct {\r\n        string asunto;\r\n        string body;\r\n    }\r\n\r\n    mapping(address => Correo_struct[]) correos;\r\n\r\n    function enviarCorreo(string memory asunto, string memory body, address destinatario) public {\r\n        Correo_struct[] storage correos_local = correos[destinatario];\r\n        correos_local.push(Correo_struct(asunto, body));\r\n    }\r\n\r\n    function leerCorreo() public view returns (Correo_struct[] memory) {\r\n        Correo_struct[] memory correos_local = correos[msg.sender];\r\n        return correos_local;\r\n    }\r\n}",
  "sourcePath": "C:\\Users\\osm4r\\Documents\\GitHub\\Correos_Cripto\\proyecto\\blockchain\\contracts\\CorreoContract\\contracts\\CorreoContract.sol",
  "compiler": {
    "name": "solc",
    "version": "0.8.17+commit.8df45f5f.Emscripten.clang"
  },
  "schemaVersion": "3.4.10",
  "updatedAt": "2022-11-13T05:25:19.300Z",
  "devdoc": {
    "kind": "dev",
    "methods": {},
    "version": 1
  },
  "userdoc": {
    "kind": "user",
    "methods": {},
    "version": 1
  }
}